:020000040800F2
:1000000000000220C7010008C1010008C10100086A
:10001000C1010008C1010008C10100080000000082
:10002000000000000000000000000000C101000806
:10003000C101000800000000C1010008C101000862
:10004000C1010008C1010008C1010008C101000888
:1000500000000000C1010008C1010008C101000842
:10006000C1010008C1010008C1010008C101000868
:10007000C1010008C1010008C1010008C101000858
:10008000C1010008C1010008C1010008C101000848
:10009000C1010008C1010008C1010008C101000838
:1000A000C1010008C1010008C1010008C101000828
:1000B000C1010008C1010008C1010008C101000818
:1000C000C1010008C1010008C1010008C101000808
:1000D000C1010008C1010008C1010008C1010008F8
:1000E000C1010008C1010008C1010008C1010008E8
:1000F000C1010008C1010008C1010008C1010008D8
:10010000C1010008C1010008C1010008C1010008C7
:10011000C1010008C1010008C1010008C1010008B7
:10012000C1010008C1010008C1010008C1010008A7
:10013000C1010008C1010008C1010008C101000897
:10014000C1010008C1010008C1010008C101000887
:10015000C1010008C1010008C1010008C101000877
:10016000C1010008C1010008C1010008C101000867
:10017000C1010008C1010008C1010008C101000857
:10018000C1010008C101000880B584B000AF0B4B6D
:100190007B600B233B7201237B720023BB72002325
:1001A0003B730023FB723B1D184600F0D3F801227D
:1001B0000B21024800F042FBFEE700BF00080240AE
:1001C00080B400AFFEE780B586B000AF1A4A1B4B83
:1001D000D31A7B60194B7B61194B3B610023FB6099
:1001E0000AE03A69531C3B617B69591C79611278BA
:1001F0001A70FB680133FB60FA687B689A42F0D39F
:10020000104A114BD31A7B600F4B7B610023BB60FC
:1002100007E07B695A1C7A6100221A70BB680133BF
:10022000BB60BA687B689A42F3D3FFF7ADFF00BFAB
:100230001837BD4680BD00BF000000200000002030
:10024000600A0008000000200000002080B483B095
:1002500000AF78600B46FB70FB78012B61D17B68A7
:10026000324A934206D1324B1B6B314A43F00103B1
:10027000136356E07B682F4A934206D12C4B1B6BCD
:100280002B4A43F0020313634BE07B682A4A9342F4
:1002900006D1274B1B6B264A43F00403136340E04F
:1002A0007B68264A934206D1214B1B6B204A43F0C0
:1002B0000803136335E07B68214A934206D11C4B47
:1002C0001B6B1B4A43F0100313632AE07B681D4A33
:1002D000934206D1164B1B6B154A43F02003136360
:1002E0001FE07B68184A934206D1114B1B6B104AE2
:1002F00043F04003136314E07B68144A934206D131
:100300000B4B1B6B0A4A43F08003136309E07B68C5
:100310000F4A934205D1064B1B6B054A43F4807389
:10032000136300BF0C37BD4680BC7047000002401D
:10033000003802400004024000080240000C024065
:10034000001002400014024000180240001C02404D
:100350000020024080B586B000AF786000237B614A
:100360007B681B6801211846FFF770FF7B685B798B
:10037000032B20D87B685B791A467B681B795B006E
:1003800002FA03F37B617B681B681A687B681B7940
:100390005B00032101FA03F3DB4319467B681B680A
:1003A0000A401A607B681B6819687B681B687A6959
:1003B0000A431A60CBE07B685B79042B17D14B4B67
:1003C000DB687A681279114601228A401146474A51
:1003D0000B43D360454B9B687A6812791146012222
:1003E0008A40D2431146414A0B40936035E07B6816
:1003F0005B79052B17D13D4B9B687A6812791146C2
:1004000001228A401146394A0B439360374BDB681F
:100410007A681279114601228A40D2431146334A42
:100420000B40D36019E07B685B79062B15D12F4B0D
:100430009B687A681279114601228A4011462B4A3C
:100440000B439360294BDB687A68127911460122CD
:100450008A401146254A0B43D3607B681B799B0871
:10046000FB747B681B7903F00303BB747B681B6818
:100470001F4A93424ED07B681B681E4A934232D07B
:100480007B681B681C4A93422BD07B681B681B4A05
:10049000934224D07B681B68194A93421DD07B6825
:1004A0001B68184A934216D07B681B68164A934211
:1004B0000FD07B681B68154A934208D07B681B6885
:1004C000134A934201D1082325E0002323E00723A8
:1004D00021E006231FE005231DE004231BE0032386
:1004E00019E0022317E0012315E000BF003C0140A2
:1004F000000002400004024000080240000C0240DC
:10050000001002400014024000180240001C02408B
:100510000020024000237B74594B5B6C584A43F423
:10052000804353647A7CBB7C9B0002FA03F1554AFA
:10053000FB7C023342F82310534B1B687A68127914
:10054000114601228A4011464F4A0B4313607B68D3
:100550009B791A467B681B795B0002FA03F37B6187
:100560007B681B689A687B681B795B00032101FA32
:1005700003F3DB4319467B681B680A409A607B687B
:100580001B6899687B681B687A690A439A607B6874
:10059000DB791A467B681B795B0002FA03F37B6107
:1005A0007B681B68DA687B681B795B00032101FAB2
:1005B00003F3DB4319467B681B680A40DA607B68FB
:1005C0001B68D9687B681B687A690A43DA607B68B4
:1005D0001B7A1A467B681B7902FA03F37B617B68FE
:1005E0001B685A687B681B79194601238B40DB43E3
:1005F00019467B681B680A405A607B681B6859680B
:100600007B681B687A690A435A607B685B79022BB6
:1006100031D17B681B79DB083B747B681B7903F065
:100620000703FB737B681B683A7C083253F822107F
:10063000FB7B9B000F2202FA03F3DB4318467B6827
:100640001B683A7C0140083243F822107B681B6823
:100650003A7C083253F822107B685B7A1A46FB7B9F
:100660009B0002FA03F318467B681B683A7C01433F
:10067000083243F8221000BF1837BD4680BD00BFC6
:100680000038024000380140003C014080B483B093
:1006900000AF78607B684E4A93420CD14D4B1B698A
:1006A0004C4A43F0010313614A4B1B69494A23F04A
:1006B0000103136186E07B68474A93420CD1454BA6
:1006C0001B69444A43F002031361424B1B69414AD0
:1006D00023F00203136175E07B68404A93420CD11A
:1006E0003C4B1B693B4A43F004031361394B1B69C4
:1006F000384A23F00403136164E07B68384A93426C
:100700000CD1344B1B69334A43F008031361314B5E
:100710001B69304A23F00803136153E07B68314AB8
:1007200093420CD12B4B1B692A4A43F010031361EF
:10073000284B1B69274A23F01003136142E07B68B2
:10074000294A93420CD1234B1B69224A43F02003D0
:100750001361204B1B691F4A23F02003136131E012
:100760007B68224A93420CD11A4B1B69194A43F009
:1007700040031361174B1B69164A23F040031361B2
:1007800020E07B681A4A93420CD1124B1B69114A34
:1007900043F0800313610F4B1B690E4A23F0800363
:1007A00013610FE07B68134A93420BD1094B1B691D
:1007B000084A43F480731361064B1B69054A23F40E
:1007C0008073136100BF0C37BD4680BC704700BF0B
:1007D00000000240003802400004024000080240CD
:1007E000000C0240001002400014024000180240B9
:1007F000001C02400020024080B485B000AF786049
:100800000B46FB707B681A69FB7822FA03F3DBB2B4
:1008100003F00103FB73FB7B18461437BD4680BC15
:10082000704780B485B000AF78607B681B69FB813E
:10083000FB8918461437BD4680BC704780B483B02E
:1008400000AF78600B46FB701346BB70BB78012B82
:1008500009D17B685B69FA78012101FA02F21A4337
:100860007B685A6109E07B685B69FA78012101FACB
:1008700002F2D2431A407B685A6100BF0C37BD4672
:1008800080BC704780B483B000AF78600B467B803B
:100890007A887B685A6100BF0C37BD4680BC7047C0
:1008A00080B483B000AF78600B46FB707B685B69F7
:1008B000FA78012101FA02F25A407B685A6100BFBE
:1008C0000C37BD4680BC704780B483B000AF034690
:1008D0000A46FB711346BB71BB79012B33D1FB79FF
:1008E0001F2B0AD8344B1B68FA79012101FA02F256
:1008F0001146314A0B43136059E0FB791F2B0FD986
:10090000FB793F2B0CD82D4B1B68FA7902F01F02A4
:10091000012101FA02F21146284A0B43136046E016
:10092000FB793F2B43D9FB795F2B40D8244B1B68C5
:10093000FA7902F03F02012101FA02F21146204A3F
:100940000B43136033E0FB791F2B0AD81D4B1B6848
:10095000FA79012101FA02F211461A4A0B43136097
:1009600025E0FB791F2B0FD9FB793F2B0CD8164BB9
:100970001B68FA7902F01F02012101FA02F2114606
:10098000114A0B43136012E0FB793F2B0FD9FB791F
:100990005F2B0CD80D4B1B68FA7902F03F02012146
:1009A00001FA02F21146094A0B431360FFE700BF48
:1009B0000C37BD4680BC704700E100E004E100E078
:1009C00008E100E080E100E084E100E088E100E08F
:1009D00080B485B000AF03463960FB71FB799B089A
:1009E000FB73FB7903F00303BB73BB7BDB00DBB260
:1009F00004337B73FB7B9B0003F1604303F564438B
:100A000019687B7B3A689A40FB7B9B0003F160434B
:100A100003F564430A431A6000BF1437BD4680BC27
:100A2000704780B483B000AF0346FB710B4B5B692A
:100A3000FA79012101FA02F21340002B09D0074B89
:100A40005B69FA79012101FA02F21146034A0B436C
:100A5000536100BF0C37BD4680BC7047003C01406D
:04000005080001C727
:00000001FF
